:040000007AEF00F0A3
:060008005882F0EF0DF03C
:100018005880D8CF46F0E8CF47F0E0CF48F0F2A4B8
:1000280018EF00F01AEF00F046EF00F0D80ED76E88
:10003800EF0ED66EF29410BE2DEF00F0105007E1CF
:100048000A0E0F5CD8B02BEF00F02DEF00F035EF63
:1000580000F0010E0F240F6E000E1020106E44EFFA
:1000680000F00A0E0F181010D8A43DEF00F03FEF73
:1000780000F044EF00F0C282000E106E000E0F6E0A
:10008800010E116E9EAC4BEF00F04DEF00F072EFD9
:1000980000F0C450016E026A036A046A01C043F0AA
:1000A80002C044F003C045F0426A42C001F043C0B8
:1000B80002F044C003F045C004F0C3500124016EAF
:1000C800000E0220026E000E0320036E000E0420B4
:1000D800046E9E9C000E0E6E010E0D6E48C0E0FF71
:1000E80047C0E8FF46C0D8FF5890100084EF0EF0D4
:101000000000E3EF09F04950D96EDA6ADE04DE1021
:10101000D8A40DEF08F00FEF08F057EF08F0495093
:10102000D96EDA6A020ED926DE50DE10D8A41BEF84
:1010300008F01DEF08F057EF08F04950D96EDA6A52
:10104000060ED926DE28DE10D8A429EF08F02BEFF3
:1010500008F036EF08F04950D96EDA6A060ED92644
:10106000FF0EDE6E000EDD6E4CEF08F04950D96EBB
:10107000DA6A060ED926DECF4AF0DDCF4BF0010E3C
:101080004A26000E4B224950D96EDA6A060ED9263E
:101090004AC0DEFF4BC0DDFF4950D96EDA6A040E4C
:1010A000D926010EDE6E000EDD6E06EF0AF0495005
:1010B000D96EDA6ADE50DE10D8A461EF08F063EF73
:1010C00008F006EF0AF04950D96EDA6A020ED92606
:1010D000DE04DE10D8A46FEF08F071EF08F006EF21
:1010E0000AF04950D96EDA6A060ED926DE50DE10B3
:1010F000D8A47DEF08F07FEF08F088EF08F04950A2
:10110000D96EDA6A060ED926DE6ADD6AA0EF08F02B
:101110004950D96EDA6A060ED926DECF4AF0DDCF05
:101120004BF0FF0E4A244C6EFF0E4B204D6E495083
:10113000D96EDA6A060ED9264CC0DEFF4DC0DDFF3F
:101140004950D96EDA6A040ED926030EDE6E000EFF
:10115000DD6E06EF0AF04950D96EDA6ADE04DE1061
:10116000D8A4B5EF08F0B7EF08F0D0EF08F0495079
:10117000D96EDA6A020ED926DE04DE10D8A4C3EFD7
:1011800008F0C5EF08F0D0EF08F04950D96EDA6AE0
:10119000040ED926020EDE6E000EDD6E06EF0AF09A
:1011A0004950D96EDA6ADE50DE10D8A4DAEF08F0C2
:1011B000DCEF08F006EF0AF04950D96EDA6A020E49
:1011C000D926DE50DE10D8A4E8EF08F0EAEF08F0E8
:1011D00006EF0AF04950D96EDA6A040ED926DE6AA3
:1011E000DD6A06EF0AF04950D96EDA6ADE50DE1089
:1011F000D8A4FDEF08F0FFEF08F047EF09F04950E1
:10120000D96EDA6A020ED926DE04DE10D8A40BEFFE
:1012100009F00DEF09F047EF09F04950D96EDA6A8D
:10122000040ED926030EDE6E000EDD6E4950D96E17
:10123000DA6A060ED926DE28DE10D8A422EF09F0DD
:1012400024EF09F02FEF09F04950D96EDA6A060E43
:10125000D926FF0EDE6E000EDD6E06EF0AF0495055
:10126000D96EDA6A060ED926DECF4AF0DDCF4BF012
:10127000010E4A26000E4B224950D96EDA6A060E3C
:10128000D9264AC0DEFF4BC0DDFF06EF0AF0495009
:10129000D96EDA6ADE04DE10D8A451EF09F053EFFC
:1012A00009F006EF0AF04950D96EDA6A020ED92623
:1012B000DE50DE10D8A45FEF09F061EF09F006EF11
:1012C0000AF04950D96EDA6A040ED926010EDE6E94
:1012D000000EDD6E4950D96EDA6A060ED926DE5050
:1012E000DE10D8A476EF09F078EF09F081EF09F06D
:1012F0004950D96EDA6A060ED926DE6ADD6A06EF33
:101300000AF04950D96EDA6A060ED926DECF4AF0C5
:10131000DDCF4BF0FF0E4A244C6EFF0E4B204D6E7E
:101320004950D96EDA6A060ED9264CC0DEFF4DC090
:10133000DDFF06EF0AF04950D96EDA6ADE50DE10A2
:10134000D8A4A5EF09F0A7EF09F0BEEF09F04950C6
:10135000D96EDA6A020ED926DE50DE10D8A4B3EFB9
:1013600009F0B5EF09F0BEEF09F04950D96EDA6A1D
:10137000040ED926DE6ADD6A06EF0AF04950D96EFE
:10138000DA6ADE04DE10D8A4C8EF09F0CAEF09F06B
:1013900006EF0AF04950D96EDA6A020ED926DE0449
:1013A000DE10D8A4D6EF09F0D8EF09F006EF0AF066
:1013B0004950D96EDA6A040ED926020EDE6E000E8E
:1013C000DD6E06EF0AF04950D96EDA6A040ED926AE
:1013D000DECF4AF0DDCF4BF04B50000AD8B4F3EF2C
:1013E00009F006EF0AF04A50000AD8B403EF08F0FB
:1013F000010AD8B4ABEF08F0030AD8B4F3EF08F051
:10140000010AD8B49BEF09F006EF0AF0120067EC6E
:101410000EF0000ED56ED586D80ED76EEF0ED66EB6
:10142000D58E000EF16EF28AD58EF28CF28EC30E3E
:10143000576E500E566E5750BD6E56C0BCFF11040D
:10144000D8A425EF0AF027EF0AF0F7EF0AF088BEDC
:101450002CEF0AF030EF0AF0556A552A31EF0AF006
:10146000556A5550306E316A300E496ED1EC0BF032
:10147000300E496ED1EC0CF038B002D0839E01D012
:10148000838E88B046EF0AF04AEF0AF0556A552A73
:101490004BEF0AF0556A55501C6E1D6A1C0E496EC2
:1014A000D1EC0BF088B257EF0AF05BEF0AF0556A07
:1014B000552A5CEF0AF0556A5550126E136A120EE7
:1014C000496ED1EC0BF01EB002D0839C01D0838C0E
:1014D00014B002D0839A01D0838A1EC03AF01FC094
:1014E0003BF014C03CF015C03DF03A0E496E01ECE3
:1014F00008F040504110D8A480EF0AF082EF0AF0C3
:101500008EEF0AF038503910D8A489EF0AF08BEF2B
:101510000AF08EEF0AF08584D3EF0AF040284110DC
:10152000D8A495EF0AF097EF0AF0A3EF0AF038502D
:101530003910D8A49EEF0AF0A0EF0AF0A3EF0AF04A
:101540008582D3EF0AF00150021003100410D8A4D2
:10155000ACEF0AF0AEEF0AF0BAEF0AF03804391037
:10156000D8A4B5EF0AF0B7EF0AF0BAEF0AF0858415
:10157000D3EF0AF00128021003100410D8A4C3EF1F
:101580000AF0C5EF0AF0D1EF0AF038043910D8A4F8
:10159000CCEF0AF0CEEF0AF0D1EF0AF08582D3EF5C
:1015A0000AF08594859288BCD8EF0AF0DCEF0AF047
:1015B000556A552ADDEF0AF0556A5550266E276A9E
:1015C000260E496ED1EC0BF0260E496ED1EC0CF0D4
:1015D0002E042F10D8A4EFEF0AF0F1EF0AF0F4EF89
:1015E0000AF08398F5EF0AF08388000E116E0D045F
:1015F0000E10D8A4FEEF0AF000EF0BF077EF0BF01F
:1016000004BE0FEF0BF0045003100BE1E90E015C78
:10161000030E0258D8A00FEF0BF011EF0BF01BEFE9
:101620000BF0E80E016E030E026E000E036E000E4C
:10163000046E33EF0BF004BE2BEF0BF004500310DD
:10164000021007E1320E015CD8B029EF0BF02BEF4E
:101650000BF033EF0BF0320E016E000E026E000E37
:10166000036E000E046ECE0E0124016EFF0E0220EA
:10167000026EFF0E0320036EFF0E0420046E01C0F5
:1016800049F002C04AF003C04BF004C04CF0FF0E1A
:101690004D6E000E4E6E000E4F6E000E506E32EC10
:1016A0000EF049C001F04AC002F04BC003F04CC03C
:1016B00004F001C049F002C04AF003C04BF004C07E
:1016C0004CF0B60E4D6E030E4E6E000E4F6E000EB9
:1016D000506E69EC0DF049C001F04AC002F04BC0F9
:1016E00003F04CC004F0000E0E6E000E0D6E2E5076
:1016F0002F10D8A47EEF0BF080EF0BF09AEF0BF0D9
:1017000038503910D8A487EF0BF089EF0BF08DEF2C
:101710000BF040C087FFA5EF0BF038043910D8A4B8
:1017200094EF0BF096EF0BF0A5EF0BF001C087FFE5
:10173000A5EF0BF02E042F10D8A4A1EF0BF0A3EF10
:101740000BF0A5EF0BF0000E876E2E502F10D8A4D3
:10175000ACEF0BF0AEEF0BF0C5EF0BF090500A0DB5
:10176000F3CF09F0F4CF0AF0C50E095C090E0A5850
:10177000D8A0BDEF0BF0BFEF0BF0C9EF0BF0090ED7
:101780000A6EC40E096EC9EF0BF0000E0A6E000E51
:10179000096E000E086E010E076E1FEF0AF07AEF59
:1017A00000F0A9EF0CF04950D96EDA6ADE04DE10C1
:1017B000D8A4DDEF0BF0DFEF0BF0EAEF0BF04950B0
:1017C000D96EDA6A040ED926010EDE6E000EDD6EC9
:1017D000F3EF0BF04950D96EDA6A040ED926030EE6
:1017E000DE6E000EDD6E4950D96EDA6A020ED92621
:1017F000DE6ADD6AD0EF0CF04950D96EDA6ADE0499
:10180000DE10D8A406EF0CF008EF0CF013EF0CF08C
:101810004950D96EDA6A040ED926020EDE6E000E29
:10182000DD6E1CEF0CF04950D96EDA6A040ED92631
:10183000030EDE6E000EDD6E4950D96EDA6A020EBE
:10184000D926DE6ADD6AD0EF0CF04950D96EDA6A2B
:10185000DE04DE10D8A42FEF0CF031EF0CF045EFD2
:101860000CF04950D96EDA6A040ED926020EDE6EEB
:10187000000EDD6E4950D96EDA6A020ED926010ECD
:10188000DE6E000EDD6ED0EF0CF04950D96EDA6AD4
:10189000040ED926030EDE6E000EDD6E4950D96EA1
:1018A000DA6A020ED926DE6ADD6AD0EF0CF0495002
:1018B000D96EDA6ADE04DE10D8A461EF0CF063EFB3
:1018C0000CF06EEF0CF04950D96EDA6A040ED9268E
:1018D000010EDE6E000EDD6E77EF0CF04950D96E12
:1018E000DA6A040ED926040EDE6E000EDD6E495053
:1018F000D96EDA6A020ED926DE6ADD6AD0EF0CF004
:101900004950D96EDA6ADE04DE10D8A48AEF0CF0F2
:101910008CEF0CF097EF0CF04950D96EDA6A040E98
:10192000D926010EDE6E000EDD6ED0EF0CF04950B0
:10193000D96EDA6A040ED926040EDE6E000EDD6E54
:101940004950D96EDA6A020ED926DE6ADD6AD0EF16
:101950000CF04950D96EDA6A040ED926DECF4AF06F
:10196000DDCF4BF04B50000AD8B4B9EF0CF0D0EFFC
:101970000CF04A50000AD8B4D3EF0BF0010AD8B4E7
:10198000FCEF0BF0030AD8B425EF0CF0010AD8B431
:1019900057EF0CF0070AD8B480EF0CF0D0EF0CF042
:1019A000120045EF0DF04950D96EDA6A020ED926C1
:1019B000DE04DE10D8A4DFEF0CF0E1EF0CF068EFEE
:1019C0000DF04950D96EDA6A060ED926010EDE6E88
:1019D000000EDD6E4950D96EDA6A080ED926010E66
:1019E000DE6E000EDD6E68EF0DF04950D96EDA6ADA
:1019F000020ED926DE50DE10D8A401EF0DF003EF61
:101A00000DF068EF0DF04950D96EDA6A060ED9264E
:101A1000020EDE6E000EDD6E68EF0DF04950D96EDD
:101A2000DA6A020ED926DE04DE10D8A41AEF0DF011
:101A30001CEF0DF068EF0DF04950D96EDA6A060E12
:101A4000D926030EDE6E000EDD6E4950D96EDA6ABD
:101A5000080ED926DE6ADD6A68EF0DF04950D96EAE
:101A6000DA6A020ED926DE50DE10D8A43AEF0DF065
:101A70003CEF0DF068EF0DF04950D96EDA6A060EB2
:101A8000D926DE6ADD6A68EF0DF04950D96EDA6A50
:101A9000060ED926DECF4AF0DDCF4BF04B50000AC0
:101AA000D8B455EF0DF068EF0DF04A50000AD8B4E5
:101AB000D3EF0CF0010AD8B4F5EF0CF0030AD8B458
:101AC0000EEF0DF0010AD8B42EEF0DF068EF0DF017
:101AD0001200000E0001616F50BE73EF0DF071EF48
:101AE0000DF07DEF0DF0501E4F1E4E1E4D6C000E82
:101AF0004E224F225022010E616F4CBE84EF0DF03A
:101B000082EF0DF08EEF0DF04C1E4B1E4A1E496CFD
:101B1000000E4A224B224C22010E611B000E626F06
:101B2000000E636F000E646F000E656F4D504E1017
:101B30004F105010D8B49FEF0DF0A1EF0DF0D7EF7C
:101B40000DF0010E606FABEF0DF0D8904D364E36B4
:101B50004F365036602B50AEB0EF0DF0B2EF0DF0B7
:101B6000A5EF0DF0D89062376337643765374D5075
:101B7000495C4E504A584F504B5850504C58D8A082
:101B8000C4EF0DF0C6EF0DF0CFEF0DF04D50495EF4
:101B90004E504A5A4F504B5A50504C5A6281D8902E
:101BA00050324F324E324D32602FB2EF0DF0615154
:101BB000D8B4DDEF0DF0DFEF0DF0E7EF0DF0651FAE
:101BC000641F631F626D000E63236423652362C07C
:101BD00049F063C04AF064C04BF065C04CF012009D
:101BE0009EA4F5EF0DF0F7EF0DF030EF0EF082A4AC
:101BF000FCEF0DF0FEEF0DF008EF0EF0090EBB6EDE
:101C00000B505624566E0C505720576E2BEF0EF08B
:101C1000080EBB6E05505624566E06505720576E60
:101C200007500810D8B417EF0EF019EF0EF02BEF95
:101C30000EF0C40E09240B6E090E0A200C6E0B5018
:101C40005008056E0C50D8A0E82AC308066E000E96
:101C5000086E000E076E9E945750BD6E56C0BCFFB6
:101C600058921100000E516E000E526E000E536E0F
:101C7000000E546E49A03FEF0EF041EF0EF049EF19
:101C80000EF04D5051264E5052224F50532250507C
:101C90005422D8904D364E364F365036D8904C326E
:101CA0004B324A32493249504A104B104C10D8A49A
:101CB0005CEF0EF05EEF0EF03AEF0EF051C049F01F
:101CC00052C04AF053C04BF054C04CF01200FC0E0E
:101CD000D3169B8CD08E000E956E9A68000E996E6E
:101CE000000E976E9786610EC26E8A0EC16E000E50
:101CF0009DBC010E9D6E9F9C9494A10ECD6E080E0E
:101D0000BB6E9D849F84120000EE01F0410EEE6ACE
:0E1D1000E806FDE158905892000107EF0AF036
:020000040001F9
:06FFF800A0F405FFF8FF74
:00000001FF
