:040000007AEF00F0A3
:060008004E8225EF0DF011
:100018004E80D8CF3AF0E8CF3BF0E0CF3CF0F2A4E6
:1000280018EF00F01AEF00F046EF00F0D80ED76E88
:10003800EF0ED66EF29410BE2DEF00F0105007E1CF
:100048000A0E0F5CD8B02BEF00F02DEF00F035EF63
:1000580000F0010E0F240F6E000E1020106E44EFFA
:1000680000F00A0E0F181010D8A43DEF00F03FEF73
:1000780000F044EF00F0C282000E106E000E0F6E0A
:10008800010E116E9EAC4BEF00F04DEF00F072EFD9
:1000980000F0C450016E026A036A046A01C037F0B6
:1000A80002C038F003C039F0366A36C001F037C0F4
:1000B80002F038C003F039C004F0C3500124016EC7
:1000C800000E0220026E000E0320036E000E0420B4
:1000D800046E9E9C000E0E6E010E0D6E3CC0E0FF7D
:1000E8003BC0E8FF3AC0D8FF4E901000B9EF0DF0C2
:10100000000097EF09F03D50D96EDA6ADE04DE1079
:10101000D8A40DEF08F00FEF08F04BEF08F03E50AA
:10102000D96EDA6ADE50DE10D8A419EF08F01BEF93
:1010300008F04BEF08F04050D96EDA6ADE28DE1077
:10104000D8A425EF08F027EF08F030EF08F0405063
:10105000D96EDA6AFF0EDE6E000EDD6E42EF08F02A
:101060004050D96EDA6ADECF41F0DDCF42F0010E9A
:101070004126000E42224050D96EDA6A41C0DEFF9E
:1010800042C0DDFF3F50D96EDA6A010EDE6E000EFF
:10109000DD6EB8EF09F03D50D96EDA6ADE50DE1031
:1010A000D8A455EF08F057EF08F0B8EF09F03E501C
:1010B000D96EDA6ADE04DE10D8A461EF08F063EFBF
:1010C00008F0B8EF09F04050D96EDA6ADE50DE1051
:1010D000D8A46DEF08F06FEF08F076EF08F04050FD
:1010E000D96EDA6ADE6ADD6A8AEF08F04050D96E9E
:1010F000DA6ADECF41F0DDCF42F0FF0E4124436ECD
:10110000FF0E4220446E4050D96EDA6A43C0DEFFC3
:1011100044C0DDFF3F50D96EDA6A030EDE6E000E6A
:10112000DD6EB8EF09F03D50D96EDA6ADE04DE10EC
:10113000D8A49DEF08F09FEF08F0B4EF08F03E5000
:10114000D96EDA6ADE04DE10D8A4A9EF08F0ABEF9E
:1011500008F0B4EF08F03F50D96EDA6A020EDE6E86
:10116000000EDD6EB8EF09F03D50D96EDA6ADE5040
:10117000DE10D8A4BEEF08F0C0EF08F0B8EF09F019
:101180003E50D96EDA6ADE50DE10D8A4CAEF08F0FD
:10119000CCEF08F0B8EF09F03F50D96EDA6ADE6A9A
:1011A000DD6AB8EF09F03D50D96EDA6ADE50DE1024
:1011B000D8A4DDEF08F0DFEF08F01BEF09F03E5098
:1011C000D96EDA6ADE04DE10D8A4E9EF08F0EBEF9E
:1011D00008F01BEF09F03F50D96EDA6A030EDE6E9D
:1011E000000EDD6E4050D96EDA6ADE28DE10D8A41B
:1011F000FCEF08F0FEEF08F007EF09F04050D96E61
:10120000DA6AFF0EDE6E000EDD6EB8EF09F04050B8
:10121000D96EDA6ADECF41F0DDCF42F0010E412611
:10122000000E42224050D96EDA6A41C0DEFF42C051
:10123000DDFFB8EF09F03D50D96EDA6ADE04DE104A
:10124000D8A425EF09F027EF09F0B8EF09F03E50D8
:10125000D96EDA6ADE50DE10D8A431EF09F033EF30
:1012600009F0B8EF09F03F50D96EDA6A010EDE6E70
:10127000000EDD6E4050D96EDA6ADE50DE10D8A462
:1012800044EF09F046EF09F04DEF09F04050D96EF8
:10129000DA6ADE6ADD6AB8EF09F04050D96EDA6AC0
:1012A000DECF41F0DDCF42F0FF0E4124436EFF0E52
:1012B0004220446E4050D96EDA6A43C0DEFF44C01B
:1012C000DDFFB8EF09F03D50D96EDA6ADE50DE106E
:1012D000D8A46DEF09F06FEF09F07DEF09F03E50F3
:1012E000D96EDA6ADE50DE10D8A479EF09F07BEF10
:1012F00009F07DEF09F0CCEF08F03D50D96EDA6AC5
:10130000DE04DE10D8A487EF09F089EF09F0B8EF0A
:1013100009F03E50D96EDA6ADE04DE10D8A493EFED
:1013200009F095EF09F0B8EF09F0ABEF08F03F5086
:10133000D96EDA6ADECF41F0DDCF42F04250000ACA
:10134000D8B4A5EF09F0B8EF09F04150000AD8B4BD
:1013500003EF08F0010AD8B493EF08F0030AD8B4F9
:10136000D3EF08F0010AD8B463EF09F0B8EF09F041
:1013700012009CEC0DF0000ED56ED586D80ED76EFF
:10138000EF0ED66ED58E000EF16EF28AD58EF28CEF
:10139000F28EC30E4D6E500E4C6E4D50BD6E4CC055
:1013A000BCFF1104D8A4D7EF09F0D9EF09F07FEF03
:1013B0000AF088BEDEEF09F0E2EF09F04B6A4B2A33
:1013C000E3EF09F04B6A4B50346E356A340E3D6ED4
:1013D000300E3E6E320E3F6E59EC0BF0320E3D6E0B
:1013E000280E3E6E260E3F6EA3EC0CF026B002D007
:1013F000839E01D0838E88B000EF0AF004EF0AF0DC
:101400004B6A4B2A05EF0AF04B6A4B50206E216A5B
:10141000200E3D6E160E3E6E1C0E3F6E59EC0BF00C
:1014200088B215EF0AF019EF0AF04B6A4B2A1AEF4F
:101430000AF04B6A4B501E6E1F6A1E0E3D6E140E54
:101440003E6E1A0E3F6E59EC0BF01CB002D0839C1E
:1014500001D0838C1AB002D0839A01D0838A1C0EEB
:101460003D6E1A0E3E6E180E3F6E120E406E01EC6F
:1014700008F012501310D8A440EF0AF042EF0AF01F
:1014800045EF0AF0858453EF0AF012281310D8A410
:101490004CEF0AF04EEF0AF051EF0AF0858253EF5D
:1014A0000AF08594859288BC58EF0AF05CEF0AF048
:1014B0004B6A4B2A5DEF0AF04B6A4B502E6E2F6A37
:1014C0002E0E3D6E2A0E3E6E2C0E3F6E59EC0BF02A
:1014D0002C0E3D6E240E3E6E220E3F6EA3EC0CF0E1
:1014E00022042310D8A477EF0AF079EF0AF07CEFFA
:1014F0000AF083987DEF0AF08388000E116E0D04C8
:101500000E10D8A486EF0AF088EF0AF0FFEF0AF079
:1015100004BE97EF0AF0045003100BE1E90E015CE2
:10152000030E0258D8A097EF0AF099EF0AF0A3EF44
:101530000AF0E80E016E030E026E000E036E000E3E
:10154000046EBBEF0AF004BEB3EF0AF004500310C0
:10155000021007E1320E015CD8B0B1EF0AF0B3EF30
:101560000AF0BBEF0AF0320E016E000E026E000EA2
:10157000036E000E046ECE0E0124016EFF0E0220DB
:10158000026EFF0E0320036EFF0E0420046E01C0E6
:101590003DF002C03EF003C03FF004C040F0FF0E3B
:1015A000416E000E426E000E436E000E446E67ECFC
:1015B0000DF03DC001F03EC002F03FC003F040C05E
:1015C00004F001C03DF002C03EF003C03FF004C093
:1015D00040F0B60E416E030E426E000E436E000EDA
:1015E000446E1DEC0CF03DC001F03EC002F03FC067
:1015F00003F040C004F0000E0E6E000E0D6E22507F
:101600002310D8A406EF0BF008EF0BF022EF0BF03D
:1016100026502710D8A40FEF0BF011EF0BF015EFA9
:101620000BF012C087FF2DEF0BF026042710D8A473
:101630001CEF0BF01EEF0BF02DEF0BF001C087FF3E
:101640002DEF0BF022042310D8A429EF0BF02BEF81
:101650000BF02DEF0BF0000E876E22502310D8A454
:1016600034EF0BF036EF0BF04DEF0BF090500A0D0E
:10167000F3CF09F0F4CF0AF0C50E095C090E0A5841
:10168000D8A045EF0BF047EF0BF051EF0BF0090E30
:101690000A6EC40E096E51EF0BF0000E0A6E000EBA
:1016A000096E000E086E010E076ED1EF09F07AEF99
:1016B00000F0F7EF0BF03D50D96EDA6ADE04DE1071
:1016C000D8A465EF0BF067EF0BF070EF0BF03E5016
:1016D000D96EDA6A010EDE6E000EDD6E77EF0BF06A
:1016E0003E50D96EDA6A030EDE6E000EDD6E3F509C
:1016F000D96EDA6ADE6ADD6A1CEF0CF03D50D96EF5
:10170000DA6ADE04DE10D8A488EF0BF08AEF0BF063
:1017100070EF0BF03E50D96EDA6A020EDE6E000EEC
:10172000DD6E77EF0BF03D50D96EDA6ADE04DE1025
:10173000D8A49DEF0BF09FEF0BF0AFEF0BF03E50F6
:10174000D96EDA6A020EDE6E000EDD6E3F50D96E83
:10175000DA6A010EDE6E000EDD6E1CEF0CF03E50FC
:10176000D96EDA6A030EDE6E000EDD6E3F50D96E62
:10177000DA6ADE6ADD6A1CEF0CF03D50D96EDA6A77
:10178000DE04DE10D8A4C7EF0BF0C9EF0BF0CBEFEF
:101790000BF067EF0BF03E50D96EDA6A040EDE6E86
:1017A000000EDD6E77EF0BF03D50D96EDA6ADE0485
:1017B000DE10D8A4DEEF0BF0E0EF0BF0E9EF0BF05A
:1017C0003E50D96EDA6A010EDE6E000EDD6E1CEF41
:1017D0000CF03E50D96EDA6A040EDE6E000EDD6E3D
:1017E0003F50D96EDA6ADE6ADD6A1CEF0CF03E50BB
:1017F000D96EDA6ADECF40F0DDCF41F04150000A09
:10180000D8B405EF0CF01CEF0CF04050000AD8B42F
:101810005BEF0BF0010AD8B47EEF0BF0030AD8B4EB
:1018200093EF0BF0010AD8B4BDEF0BF0070AD8B460
:10183000D4EF0BF01CEF0CF01200000E466E44BE0D
:1018400026EF0CF024EF0CF030EF0CF0441E431E9A
:10185000421E416C000E422243224422010E466E7B
:1018600040BE37EF0CF035EF0CF041EF0CF0401EAE
:101870003F1E3E1E3D6C000E3E223F224022010EC6
:10188000461A000E476E000E486E000E496E000E9E
:101890004A6E4150421043104410D8B452EF0CF03D
:1018A00054EF0CF08AEF0CF0010E456E5EEF0CF079
:1018B000D8904136423643364436452A44AE63EF2B
:1018C0000CF065EF0CF058EF0CF0D8904736483626
:1018D00049364A3641503D5C42503E5843503F588D
:1018E00044504058D8A077EF0CF079EF0CF082EF1D
:1018F0000CF041503D5E42503E5A43503F5A4450D6
:10190000405A4780D8904432433242324132452EC9
:1019100065EF0CF04650D8B490EF0CF092EF0CF05D
:101920009AEF0CF04A1E491E481E476C000E4822D2
:1019300049224A2247C03DF048C03EF049C03FF02E
:101940004AC040F0120003EF0DF03D50D96EDA6A44
:10195000DE04DE10D8A4AFEF0CF0B1EF0CF024EFF2
:101960000DF03E50D96EDA6A010EDE6E000EDD6EAD
:101970003F50D96EDA6A010EDE6E000EDD6E24EF86
:101980000DF03D50D96EDA6ADE50DE10D8A4CBEFF0
:101990000CF0CDEF0CF024EF0DF03E50D96EDA6A6A
:1019A000020EDE6E000EDD6E24EF0DF03D50D96E9E
:1019B000DA6ADE04DE10D8A4E0EF0CF0E2EF0CF0FF
:1019C00024EF0DF03E50D96EDA6A030EDE6E000E83
:1019D000DD6E3F50D96EDA6ADE6ADD6A24EF0DF003
:1019E0003D50D96EDA6ADE50DE10D8A4FAEF0CF062
:1019F000FCEF0CF024EF0DF03E50D96EDA6ADE6A8F
:101A0000DD6A24EF0DF03E50D96EDA6ADECF40F089
:101A1000DDCF41F04150000AD8B411EF0DF024EFB2
:101A20000DF04050000AD8B4A5EF0CF0010AD8B46C
:101A3000C1EF0CF0030AD8B4D6EF0CF0010AD8B409
:101A4000F0EF0CF024EF0DF012009EA42AEF0DF041
:101A50002CEF0DF065EF0DF082A431EF0DF033EFB8
:101A60000DF03DEF0DF0090EBB6E0B504C244C6E8B
:101A70000C504D204D6E60EF0DF0080EBB6E055002
:101A80004C244C6E06504D204D6E07500810D8B4B3
:101A90004CEF0DF04EEF0DF060EF0DF0C40E092489
:101AA0000B6E090E0A200C6E0B505008056E0C5080
:101AB000D8A0E82AC308066E000E086E000E076E56
:101AC0009E944D50BD6E4CC0BCFF4E921100000E56
:101AD000456E000E466E000E476E000E486E3DA02D
:101AE00074EF0DF076EF0DF07EEF0DF041504526CE
:101AF000425046224350472244504822D890413613
:101B0000423643364436D89040323F323E323D3240
:101B10003D503E103F104010D8A491EF0DF093EFD0
:101B20000DF06FEF0DF045C03DF046C03EF047C0F0
:101B30003FF048C040F01200FC0ED3169B8CD08EB4
:101B4000000E956E9A68000E996E000E976E97863D
:101B5000610EC26E8A0EC16E000E9DBC010E9D6E9E
:101B60009F9C9494A10ECD6E080EBB6E9D849F84A5
:101B7000120000EE01F0350EEE6AE806FDE14E902F
:081B80004E920001B9EF09F0DB
:020000040001F9
:06FFF800A0F405FFF8FF74
:00000001FF
