:0400000029EF00F0F4
:06000800288257EF0BF007
:100018002880D8CF1CF0E8CF1DF0E0CF1EF0F2A466
:1000280018EF00F01AEF00F021EF00F0D80ED76EAD
:10003800EF0ED66EF294010E016E1EC0E0FF1DC0D9
:0E004800E8FF1CC0D8FF289010004CEF0BF012
:1010000000003BEF09F01F50D96EDA6ADE04DE10F3
:10101000D8A40DEF08F00FEF08F04BEF08F02050C8
:10102000D96EDA6ADE50DE10D8A419EF08F01BEF93
:1010300008F04BEF08F02250D96EDA6ADE28DE1095
:10104000D8A425EF08F027EF08F030EF08F0225081
:10105000D96EDA6AFF0EDE6E000EDD6E42EF08F02A
:101060002250D96EDA6ADECF23F0DDCF24F0010EF4
:101070002326000E24222250D96EDA6A23C0DEFF16
:1010800024C0DDFF2150D96EDA6A010EDE6E000E3B
:10109000DD6E5CEF09F01F50D96EDA6ADE50DE10AB
:1010A000D8A455EF08F057EF08F05CEF09F0205096
:1010B000D96EDA6ADE04DE10D8A461EF08F063EFBF
:1010C00008F05CEF09F02250D96EDA6ADE50DE10CB
:1010D000D8A46DEF08F06FEF08F076EF08F022501B
:1010E000D96EDA6ADE6ADD6A8AEF08F02250D96EBC
:1010F000DA6ADECF23F0DDCF24F0FF0E2324256E45
:10110000FF0E2420266E2250D96EDA6A25C0DEFF3B
:1011100026C0DDFF2150D96EDA6A030EDE6E000EA6
:10112000DD6E5CEF09F01F50D96EDA6ADE04DE1066
:10113000D8A49DEF08F09FEF08F0B4EF08F020501E
:10114000D96EDA6ADE04DE10D8A4A9EF08F0ABEF9E
:1011500008F0B4EF08F02150D96EDA6A020EDE6EA4
:10116000000EDD6E5CEF09F01F50D96EDA6ADE50BA
:10117000DE10D8A4BEEF08F0C0EF08F05CEF09F075
:101180002050D96EDA6ADE50DE10D8A4CAEF08F01B
:10119000CCEF08F05CEF09F02150D96EDA6ADE6A14
:1011A000DD6A5CEF09F01F50D96EDA6ADE50DE109E
:1011B000D8A4DDEF08F0DFEF08F0EDEF08F02050E5
:1011C000D96EDA6ADE04DE10D8A4E9EF08F0EBEF9E
:1011D00008F0EDEF08F08AEF08F01F50D96EDA6AD8
:1011E000DE04DE10D8A4F7EF08F0F9EF08F05CEFAA
:1011F00009F02050D96EDA6ADE50DE10D8A403EF71
:1012000009F005EF09F05CEF09F042EF08F01F501C
:10121000D96EDA6ADE50DE10D8A411EF09F013EFB0
:1012200009F021EF09F02050D96EDA6ADE50DE10A5
:10123000D8A41DEF09F01FEF09F021EF09F0CCEF62
:1012400008F01F50D96EDA6ADE04DE10D8A42BEF46
:1012500009F02DEF09F05CEF09F02050D96EDA6A41
:10126000DE04DE10D8A437EF09F039EF09F05CEFA7
:1012700009F0ABEF08F02150D96EDA6ADECF23F027
:10128000DDCF24F02450000AD8B449EF09F05CEF18
:1012900009F02350000AD8B403EF08F0010AD8B4CB
:1012A00093EF08F0030AD8B4D3EF08F0010AD8B4DA
:1012B00007EF09F05CEF09F01200FBEF09F01F5097
:1012C000D96EDA6ADE04DE10D8A469EF09F06BEF9C
:1012D00009F074EF09F02050D96EDA6A010EDE6E63
:1012E000000EDD6E7BEF09F02050D96EDA6A030E36
:1012F000DE6E000EDD6E2150D96EDA6ADE6ADD6ABE
:1013000020EF0AF01F50D96EDA6ADE04DE10D8A48E
:101310008CEF09F08EEF09F074EF09F02050D96ED0
:10132000DA6A020EDE6E000EDD6E7BEF09F01F50F2
:10133000D96EDA6ADE04DE10D8A4A1EF09F0A3EFBB
:1013400009F0B3EF09F02050D96EDA6A020EDE6EB2
:10135000000EDD6E2150D96EDA6A010EDE6E000ECF
:10136000DD6E20EF0AF02050D96EDA6A030EDE6ED1
:10137000000EDD6E2150D96EDA6ADE6ADD6A20EF7A
:101380000AF01F50D96EDA6ADE04DE10D8A4CBEF63
:1013900009F0CDEF09F0CFEF09F06BEF09F0205025
:1013A000D96EDA6A040EDE6E000EDD6E7BEF09F098
:1013B0001F50D96EDA6ADE04DE10D8A4E2EF09F01D
:1013C000E4EF09F0EDEF09F02050D96EDA6A010E72
:1013D000DE6E000EDD6E20EF0AF02050D96EDA6A64
:1013E000040EDE6E000EDD6E2150D96EDA6ADE6A02
:1013F000DD6A20EF0AF02050D96EDA6ADECF22F0E3
:10140000DDCF23F02350000AD8B409EF0AF020EF13
:101410000AF02250000AD8B45FEF09F0010AD8B4EC
:1014200082EF09F0030AD8B497EF09F0010AD8B4A3
:10143000C1EF09F0070AD8B4D8EF09F020EF0AF09D
:1014400012003DEC0BF0000ED56ED586D80ED76E8F
:10145000EF0ED66ED58E000EF16EF28AD58EF28C1E
:10146000F28E0104D8A437EF0AF039EF0AF031EF19
:101470000AF0000E016E88BE40EF0AF044EF0AF059
:10148000276A272A45EF0AF0276A27501A6E1B6A37
:101490001A0E1F6E160E206E180E216E5DEC09F0EE
:1014A000180E1F6E140E206E120E216EBBEC0AF089
:1014B00012B002D0839E01D0838E88B062EF0AF012
:1014C00066EF0AF0276A272A67EF0AF0276A275093
:1014D000106E116A100E1F6E060E206E0C0E216E1D
:1014E0005DEC09F088B277EF0AF07BEF0AF0276A2B
:1014F000272A7CEF0AF0276A27500E6E0F6A0E0E1D
:101500001F6E040E206E0A0E216E5DEC09F00CB009
:1015100002D0839C01D0838C0AB002D0839A01D080
:10152000838A0C0E1F6E0A0E206E080E216E020EAC
:10153000226E01EC08F002C087FF02500310D8A40D
:10154000A4EF0AF0A6EF0AF0A9EF0AF0858431EFC4
:101550000AF002280310D8A4B0EF0AF0B2EF0AF0A4
:10156000B5EF0AF0858231EF0AF08594859231EF6C
:101570000AF029EF00F01BEF0BF01F50D96EDA6A6A
:10158000DE04DE10D8A4C7EF0AF0C9EF0AF03CEF82
:101590000BF02050D96EDA6A010EDE6E000EDD6EA1
:1015A0002150D96EDA6A010EDE6E000EDD6E3CEF60
:1015B0000BF01F50D96EDA6ADE50DE10D8A4E3EFCC
:1015C0000AF0E5EF0AF03CEF0BF02050D96EDA6A32
:1015D000020EDE6E000EDD6E3CEF0BF01F50D96E7A
:1015E000DA6ADE04DE10D8A4F8EF0AF0FAEF0AF0A7
:1015F0003CEF0BF02050D96EDA6A030EDE6E000E5F
:10160000DD6E2150D96EDA6ADE6ADD6A3CEF0BF0DE
:101610001F50D96EDA6ADE50DE10D8A412EF0BF03C
:1016200014EF0BF03CEF0BF02050D96EDA6ADE6A53
:10163000DD6A3CEF0BF02050D96EDA6ADECF22F083
:10164000DDCF23F02350000AD8B429EF0BF03CEF94
:101650000BF02250000AD8B4BDEF0AF0010AD8B44A
:10166000D9EF0AF0030AD8B4EEEF0AF0010AD8B4B1
:1016700008EF0BF03CEF0BF01200FC0ED3169B8C26
:10168000D08E000E956E9A68000E996E000E976EC1
:101690009786610EC16E120000EE01F01B0EEE6A1D
:1016A000E806FDE128902892000121EF0AF0289237
:0216B000110027
:020000040001F9
:06FFF800A0F405FFF8FF74
:00000001FF
